{
  "contractName": "MockCfaPriceOracle",
  "abi": [
    {
      "inputs": [],
      "name": "price_",
      "outputs": [
        {
          "internalType": "uint256",
          "name": "",
          "type": "uint256"
        }
      ],
      "stateMutability": "view",
      "type": "function"
    },
    {
      "inputs": [
        {
          "internalType": "uint256",
          "name": "price",
          "type": "uint256"
        }
      ],
      "name": "setPrice",
      "outputs": [],
      "stateMutability": "nonpayable",
      "type": "function"
    },
    {
      "inputs": [],
      "name": "price",
      "outputs": [
        {
          "internalType": "uint256",
          "name": "",
          "type": "uint256"
        }
      ],
      "stateMutability": "view",
      "type": "function"
    }
  ],
  "bytecode": "0x608060405234801561001057600080fd5b5060f38061001f6000396000f3fe6080604052348015600f57600080fd5b5060043610603c5760003560e01c806391b7f5ed146041578063a035b1fe14606c578063ce40b03f146088575b600080fd5b606a60048036036020811015605557600080fd5b810190808035906020019092919050505060a4565b005b607260ae565b6040518082815260200191505060405180910390f35b608e60b7565b6040518082815260200191505060405180910390f35b8060008190555050565b60008054905090565b6000548156fea2646970667358221220af0fbfdb0a08f345cfe9ac64dab66cdfbb9ba2f37c57bdf63bbcb45179ba3ad664736f6c63430007000033",
  "immutableReferences": {},
  "source": "// SPDX-License-Identifier: MIT\n\npragma solidity >=0.7.0 <0.8.0;\n\n\nimport \"./CfaPriceOracleInterface.sol\";\n\ncontract MockCfaPriceOracle is CfaPriceOracleInterface {\n     uint public price_;\n\n    function setPrice(uint price) public {\n      price_ = price;\n    }\n\n    function price() override public view returns (uint) {\n      return price_;\n    }\n}",
  "sourcePath": "/Users/name/Desktop/token/contracts/MockCfaPriceOracle.sol",
  "compiler": {
    "name": "solc",
    "version": "0.7.0+commit.9e61f92b.Emscripten.clang"
  },
  "schemaVersion": "3.3.4",
  "updatedAt": "2021-04-06T00:35:48.014Z",
  "devdoc": {
    "kind": "dev",
    "methods": {},
    "version": 1
  },
  "userdoc": {
    "kind": "user",
    "methods": {},
    "version": 1
  }
}